{
  "_format": "hh-sol-artifact-1",
  "contractName": "Registry",
  "sourceName": "contracts/Registry.sol",
  "abi": [
    {
      "inputs": [],
      "stateMutability": "nonpayable",
      "type": "constructor"
    },
    {
      "anonymous": false,
      "inputs": [
        {
          "indexed": true,
          "internalType": "address",
          "name": "previousOwner",
          "type": "address"
        },
        {
          "indexed": true,
          "internalType": "address",
          "name": "newOwner",
          "type": "address"
        }
      ],
      "name": "OwnershipTransferred",
      "type": "event"
    },
    {
      "inputs": [
        {
          "internalType": "string",
          "name": "name",
          "type": "string"
        },
        {
          "internalType": "address",
          "name": "contractAddress",
          "type": "address"
        }
      ],
      "name": "addContract",
      "outputs": [],
      "stateMutability": "nonpayable",
      "type": "function"
    },
    {
      "inputs": [
        {
          "internalType": "string",
          "name": "name",
          "type": "string"
        },
        {
          "internalType": "address",
          "name": "contractAddress",
          "type": "address"
        }
      ],
      "name": "addProxyContract",
      "outputs": [],
      "stateMutability": "nonpayable",
      "type": "function"
    },
    {
      "inputs": [
        {
          "internalType": "string",
          "name": "name",
          "type": "string"
        }
      ],
      "name": "deleteContract",
      "outputs": [],
      "stateMutability": "nonpayable",
      "type": "function"
    },
    {
      "inputs": [
        {
          "internalType": "string",
          "name": "name",
          "type": "string"
        }
      ],
      "name": "getContract",
      "outputs": [
        {
          "internalType": "address",
          "name": "",
          "type": "address"
        }
      ],
      "stateMutability": "view",
      "type": "function"
    },
    {
      "inputs": [
        {
          "internalType": "string",
          "name": "name",
          "type": "string"
        }
      ],
      "name": "getImplementation",
      "outputs": [
        {
          "internalType": "address",
          "name": "",
          "type": "address"
        }
      ],
      "stateMutability": "nonpayable",
      "type": "function"
    },
    {
      "inputs": [],
      "name": "getUpgrader",
      "outputs": [
        {
          "internalType": "address",
          "name": "",
          "type": "address"
        }
      ],
      "stateMutability": "view",
      "type": "function"
    },
    {
      "inputs": [
        {
          "internalType": "string",
          "name": "name",
          "type": "string"
        }
      ],
      "name": "hasContract",
      "outputs": [
        {
          "internalType": "bool",
          "name": "",
          "type": "bool"
        }
      ],
      "stateMutability": "view",
      "type": "function"
    },
    {
      "inputs": [],
      "name": "owner",
      "outputs": [
        {
          "internalType": "address",
          "name": "",
          "type": "address"
        }
      ],
      "stateMutability": "view",
      "type": "function"
    },
    {
      "inputs": [],
      "name": "renounceOwnership",
      "outputs": [],
      "stateMutability": "nonpayable",
      "type": "function"
    },
    {
      "inputs": [
        {
          "internalType": "address",
          "name": "newOwner",
          "type": "address"
        }
      ],
      "name": "transferOwnership",
      "outputs": [],
      "stateMutability": "nonpayable",
      "type": "function"
    },
    {
      "inputs": [
        {
          "internalType": "string",
          "name": "name",
          "type": "string"
        },
        {
          "internalType": "address",
          "name": "newImplementation",
          "type": "address"
        }
      ],
      "name": "upgradeContract",
      "outputs": [],
      "stateMutability": "nonpayable",
      "type": "function"
    },
    {
      "inputs": [
        {
          "internalType": "string",
          "name": "name",
          "type": "string"
        },
        {
          "internalType": "address",
          "name": "newImplementation",
          "type": "address"
        },
        {
          "internalType": "string",
          "name": "functionSignature",
          "type": "string"
        }
      ],
      "name": "upgradeContractAndCall",
      "outputs": [],
      "stateMutability": "nonpayable",
      "type": "function"
    }
  ],
  "bytecode": "0x60806040523480156200001157600080fd5b506200003262000026620000a460201b60201c565b620000ac60201b60201c565b604051620000409062000170565b604051809103906000f0801580156200005d573d6000803e3d6000fd5b50600160006101000a81548173ffffffffffffffffffffffffffffffffffffffff021916908373ffffffffffffffffffffffffffffffffffffffff1602179055506200017e565b600033905090565b60008060009054906101000a900473ffffffffffffffffffffffffffffffffffffffff169050816000806101000a81548173ffffffffffffffffffffffffffffffffffffffff021916908373ffffffffffffffffffffffffffffffffffffffff1602179055508173ffffffffffffffffffffffffffffffffffffffff168173ffffffffffffffffffffffffffffffffffffffff167f8be0079c531659141344cd1fd0a4f28419497f9722a3daafe3b4186f6b6457e060405160405180910390a35050565b61099080620033c283390190565b613234806200018e6000396000f3fe60806040523480156200001157600080fd5b5060043610620000c45760003560e01c8063be888b7c116200007b578063be888b7c14620001b9578063bf5b601614620001d9578063c8276d7514620001f9578063e0e084f81462000219578063e4d7437b1462000239578063f2fde38b146200025b57620000c4565b80631271bd5314620000c95780633581777314620000e95780636b683896146200011f578063715018a614620001555780638c22360114620001615780638da5cb5b1462000197575b600080fd5b620000e76004803603810190620000e19190620011b0565b6200027b565b005b62000107600480360381019062000101919062001216565b620002a5565b60405162000116919062001278565b60405180910390f35b6200013d600480360381019062000137919062001216565b620003a1565b6040516200014c919062001278565b60405180910390f35b6200015f62000594565b005b6200017f600480360381019062000179919062001216565b620005ac565b6040516200018e9190620012b2565b60405180910390f35b620001a162000625565b604051620001b0919062001278565b60405180910390f35b620001d76004803603810190620001d1919062001216565b6200064e565b005b620001f76004803603810190620001f19190620011b0565b62000751565b005b62000217600480360381019062000211919062001338565b62000831565b005b620002376004803603810190620002319190620011b0565b62000892565b005b6200024362000a2c565b60405162000252919062001278565b60405180910390f35b620002796004803603810190620002739190620013d7565b62000aea565b005b6200028562000b75565b620002a182826040518060200160405280600081525062000bfa565b5050565b60008073ffffffffffffffffffffffffffffffffffffffff16600283604051620002d091906200148c565b908152602001604051809103902060009054906101000a900473ffffffffffffffffffffffffffffffffffffffff1673ffffffffffffffffffffffffffffffffffffffff16141562000359576040517f08c379a0000000000000000000000000000000000000000000000000000000008152600401620003509062001506565b60405180910390fd5b6002826040516200036b91906200148c565b908152602001604051809103902060009054906101000a900473ffffffffffffffffffffffffffffffffffffffff169050919050565b600080600283604051620003b691906200148c565b908152602001604051809103902060009054906101000a900473ffffffffffffffffffffffffffffffffffffffff169050600073ffffffffffffffffffffffffffffffffffffffff168173ffffffffffffffffffffffffffffffffffffffff1614156200045a576040517f08c379a0000000000000000000000000000000000000000000000000000000008152600401620004519062001506565b60405180910390fd5b600360008273ffffffffffffffffffffffffffffffffffffffff1673ffffffffffffffffffffffffffffffffffffffff16815260200190815260200160002060009054906101000a900460ff16620004e9576040517f08c379a0000000000000000000000000000000000000000000000000000000008152600401620004e09062001578565b60405180910390fd5b600160009054906101000a900473ffffffffffffffffffffffffffffffffffffffff1673ffffffffffffffffffffffffffffffffffffffff166315ac72ca826040518263ffffffff1660e01b815260040162000546919062001278565b6020604051808303816000875af115801562000566573d6000803e3d6000fd5b505050506040513d601f19601f820116820180604052508101906200058c9190620015b1565b915050919050565b6200059e62000b75565b620005aa600062000efb565b565b60008073ffffffffffffffffffffffffffffffffffffffff16600283604051620005d791906200148c565b908152602001604051809103902060009054906101000a900473ffffffffffffffffffffffffffffffffffffffff1673ffffffffffffffffffffffffffffffffffffffff1614159050919050565b60008060009054906101000a900473ffffffffffffffffffffffffffffffffffffffff16905090565b6200065862000b75565b600073ffffffffffffffffffffffffffffffffffffffff166002826040516200068291906200148c565b908152602001604051809103902060009054906101000a900473ffffffffffffffffffffffffffffffffffffffff1673ffffffffffffffffffffffffffffffffffffffff1614156200070b576040517f08c379a0000000000000000000000000000000000000000000000000000000008152600401620007029062001506565b60405180910390fd5b6002816040516200071d91906200148c565b908152602001604051809103902060006101000a81549073ffffffffffffffffffffffffffffffffffffffff021916905550565b6200075b62000b75565b600073ffffffffffffffffffffffffffffffffffffffff168173ffffffffffffffffffffffffffffffffffffffff161415620007ce576040517f08c379a0000000000000000000000000000000000000000000000000000000008152600401620007c59062001633565b60405180910390fd5b80600283604051620007e191906200148c565b908152602001604051809103902060006101000a81548173ffffffffffffffffffffffffffffffffffffffff021916908373ffffffffffffffffffffffffffffffffffffffff1602179055505050565b6200083b62000b75565b6200088c848484848080601f016020809104026020016040519081016040528093929190818152602001838380828437600081840152601f19601f8201169050808301925050505050505062000bfa565b50505050565b6200089c62000b75565b600073ffffffffffffffffffffffffffffffffffffffff168173ffffffffffffffffffffffffffffffffffffffff1614156200090f576040517f08c379a0000000000000000000000000000000000000000000000000000000008152600401620009069062001633565b60405180910390fd5b600081600160009054906101000a900473ffffffffffffffffffffffffffffffffffffffff16604051620009439062000fc7565b6200095092919062001690565b604051809103906000f0801580156200096d573d6000803e3d6000fd5b509050806002846040516200098391906200148c565b908152602001604051809103902060006101000a81548173ffffffffffffffffffffffffffffffffffffffff021916908373ffffffffffffffffffffffffffffffffffffffff1602179055506001600360008373ffffffffffffffffffffffffffffffffffffffff1673ffffffffffffffffffffffffffffffffffffffff16815260200190815260200160002060006101000a81548160ff021916908315150217905550505050565b60008073ffffffffffffffffffffffffffffffffffffffff16600160009054906101000a900473ffffffffffffffffffffffffffffffffffffffff1673ffffffffffffffffffffffffffffffffffffffff16141562000ac2576040517f08c379a000000000000000000000000000000000000000000000000000000000815260040162000ab99062001722565b60405180910390fd5b600160009054906101000a900473ffffffffffffffffffffffffffffffffffffffff16905090565b62000af462000b75565b600073ffffffffffffffffffffffffffffffffffffffff168173ffffffffffffffffffffffffffffffffffffffff16141562000b67576040517f08c379a000000000000000000000000000000000000000000000000000000000815260040162000b5e90620017ba565b60405180910390fd5b62000b728162000efb565b50565b62000b7f62000fbf565b73ffffffffffffffffffffffffffffffffffffffff1662000b9f62000625565b73ffffffffffffffffffffffffffffffffffffffff161462000bf8576040517f08c379a000000000000000000000000000000000000000000000000000000000815260040162000bef906200182c565b60405180910390fd5b565b600060028460405162000c0e91906200148c565b908152602001604051809103902060009054906101000a900473ffffffffffffffffffffffffffffffffffffffff169050600073ffffffffffffffffffffffffffffffffffffffff168173ffffffffffffffffffffffffffffffffffffffff16141562000cb2576040517f08c379a000000000000000000000000000000000000000000000000000000000815260040162000ca99062001506565b60405180910390fd5b600360008273ffffffffffffffffffffffffffffffffffffffff1673ffffffffffffffffffffffffffffffffffffffff16815260200190815260200160002060009054906101000a900460ff1662000d41576040517f08c379a000000000000000000000000000000000000000000000000000000000815260040162000d389062001578565b60405180910390fd5b60008251111562000e6157600160009054906101000a900473ffffffffffffffffffffffffffffffffffffffff1673ffffffffffffffffffffffffffffffffffffffff16639623609d8285856040516024016040516020818303038152906040529060405162000db291906200148c565b60405180910390207bffffffffffffffffffffffffffffffffffffffffffffffffffffffff19166020820180517bffffffffffffffffffffffffffffffffffffffffffffffffffffffff83818316178352505050506040518463ffffffff1660e01b815260040162000e27939291906200189a565b600060405180830381600087803b15801562000e4257600080fd5b505af115801562000e57573d6000803e3d6000fd5b5050505062000ef5565b600160009054906101000a900473ffffffffffffffffffffffffffffffffffffffff1673ffffffffffffffffffffffffffffffffffffffff166399a88ec482856040518363ffffffff1660e01b815260040162000ec0929190620018de565b600060405180830381600087803b15801562000edb57600080fd5b505af115801562000ef0573d6000803e3d6000fd5b505050505b50505050565b60008060009054906101000a900473ffffffffffffffffffffffffffffffffffffffff169050816000806101000a81548173ffffffffffffffffffffffffffffffffffffffff021916908373ffffffffffffffffffffffffffffffffffffffff1602179055508173ffffffffffffffffffffffffffffffffffffffff168173ffffffffffffffffffffffffffffffffffffffff167f8be0079c531659141344cd1fd0a4f28419497f9722a3daafe3b4186f6b6457e060405160405180910390a35050565b600033905090565b6118f3806200190c83390190565b6000604051905090565b600080fd5b600080fd5b600080fd5b600080fd5b6000601f19601f8301169050919050565b7f4e487b7100000000000000000000000000000000000000000000000000000000600052604160045260246000fd5b6200103e8262000ff3565b810181811067ffffffffffffffff8211171562001060576200105f62001004565b5b80604052505050565b60006200107562000fd5565b905062001083828262001033565b919050565b600067ffffffffffffffff821115620010a657620010a562001004565b5b620010b18262000ff3565b9050602081019050919050565b82818337600083830152505050565b6000620010e4620010de8462001088565b62001069565b90508281526020810184848401111562001103576200110262000fee565b5b62001110848285620010be565b509392505050565b600082601f83011262001130576200112f62000fe9565b5b813562001142848260208601620010cd565b91505092915050565b600073ffffffffffffffffffffffffffffffffffffffff82169050919050565b600062001178826200114b565b9050919050565b6200118a816200116b565b81146200119657600080fd5b50565b600081359050620011aa816200117f565b92915050565b60008060408385031215620011ca57620011c962000fdf565b5b600083013567ffffffffffffffff811115620011eb57620011ea62000fe4565b5b620011f98582860162001118565b92505060206200120c8582860162001199565b9150509250929050565b6000602082840312156200122f576200122e62000fdf565b5b600082013567ffffffffffffffff81111562001250576200124f62000fe4565b5b6200125e8482850162001118565b91505092915050565b62001272816200116b565b82525050565b60006020820190506200128f600083018462001267565b92915050565b60008115159050919050565b620012ac8162001295565b82525050565b6000602082019050620012c96000830184620012a1565b92915050565b600080fd5b600080fd5b60008083601f840112620012f257620012f162000fe9565b5b8235905067ffffffffffffffff811115620013125762001311620012cf565b5b602083019150836001820283011115620013315762001330620012d4565b5b9250929050565b6000806000806060858703121562001355576200135462000fdf565b5b600085013567ffffffffffffffff81111562001376576200137562000fe4565b5b620013848782880162001118565b9450506020620013978782880162001199565b935050604085013567ffffffffffffffff811115620013bb57620013ba62000fe4565b5b620013c987828801620012d9565b925092505092959194509250565b600060208284031215620013f057620013ef62000fdf565b5b6000620014008482850162001199565b91505092915050565b600081519050919050565b600081905092915050565b60005b838110156200143f57808201518184015260208101905062001422565b838111156200144f576000848401525b50505050565b6000620014628262001409565b6200146e818562001414565b9350620014808185602086016200141f565b80840191505092915050565b60006200149a828462001455565b915081905092915050565b600082825260208201905092915050565b7f4e6f206d617070696e6700000000000000000000000000000000000000000000600082015250565b6000620014ee600a83620014a5565b9150620014fb82620014b6565b602082019050919050565b600060208201905081810360008301526200152181620014df565b9050919050565b7f4e6f7420612070726f7879000000000000000000000000000000000000000000600082015250565b600062001560600b83620014a5565b91506200156d8262001528565b602082019050919050565b60006020820190508181036000830152620015938162001551565b9050919050565b600081519050620015ab816200117f565b92915050565b600060208284031215620015ca57620015c962000fdf565b5b6000620015da848285016200159a565b91505092915050565b7f57726f6e67206164647265737300000000000000000000000000000000000000600082015250565b60006200161b600d83620014a5565b91506200162882620015e3565b602082019050919050565b600060208201905081810360008301526200164e816200160c565b9050919050565b600082825260208201905092915050565b50565b60006200167860008362001655565b9150620016858262001666565b600082019050919050565b6000606082019050620016a7600083018562001267565b620016b6602083018462001267565b8181036040830152620016c98162001669565b90509392505050565b7f57726f6e67207570677261646572000000000000000000000000000000000000600082015250565b60006200170a600e83620014a5565b91506200171782620016d2565b602082019050919050565b600060208201905081810360008301526200173d81620016fb565b9050919050565b7f4f776e61626c653a206e6577206f776e657220697320746865207a65726f206160008201527f6464726573730000000000000000000000000000000000000000000000000000602082015250565b6000620017a2602683620014a5565b9150620017af8262001744565b604082019050919050565b60006020820190508181036000830152620017d58162001793565b9050919050565b7f4f776e61626c653a2063616c6c6572206973206e6f7420746865206f776e6572600082015250565b600062001814602083620014a5565b91506200182182620017dc565b602082019050919050565b60006020820190508181036000830152620018478162001805565b9050919050565b600081519050919050565b600062001866826200184e565b62001872818562001655565b9350620018848185602086016200141f565b6200188f8162000ff3565b840191505092915050565b6000606082019050620018b1600083018662001267565b620018c0602083018562001267565b8181036040830152620018d4818462001859565b9050949350505050565b6000604082019050620018f5600083018562001267565b62001904602083018462001267565b939250505056fe6080604052604051620018f3380380620018f3833981810160405281019062000029919062000754565b82816200003f828260006200005b60201b60201c565b505062000052826200009e60201b60201c565b50505062000a96565b6200006c83620000fc60201b60201c565b6000825111806200007a5750805b1562000099576200009783836200015360201b6200034f1760201c565b505b505050565b7f7e644d79422f17c01e4894b5f4f588d331ebfa28653d42ae832dc59e38c9798f620000cf6200018960201b60201c565b82604051620000e0929190620007e0565b60405180910390a1620000f981620001ed60201b60201c565b50565b6200010d81620002de60201b60201c565b8073ffffffffffffffffffffffffffffffffffffffff167fbc7cd75a20ee27fd9adebab32041f755214dbc6bffa90cc0225b39da2e5c2d3b60405160405180910390a250565b6060620001818383604051806060016040528060278152602001620018cc60279139620003b460201b60201c565b905092915050565b6000620001c47fb53127684a568b3173ae13b9f8a6016e243e63b6e8ee1178d6a717850b5d610360001b6200044660201b6200037c1760201c565b60000160009054906101000a900473ffffffffffffffffffffffffffffffffffffffff16905090565b600073ffffffffffffffffffffffffffffffffffffffff168173ffffffffffffffffffffffffffffffffffffffff16141562000260576040517f08c379a0000000000000000000000000000000000000000000000000000000008152600401620002579062000894565b60405180910390fd5b806200029a7fb53127684a568b3173ae13b9f8a6016e243e63b6e8ee1178d6a717850b5d610360001b6200044660201b6200037c1760201c565b60000160006101000a81548173ffffffffffffffffffffffffffffffffffffffff021916908373ffffffffffffffffffffffffffffffffffffffff16021790555050565b620002f4816200045060201b620003861760201c565b62000336576040517f08c379a00000000000000000000000000000000000000000000000000000000081526004016200032d906200092c565b60405180910390fd5b80620003707f360894a13ba1a3210667c828492db98dca3e2076cc3735a920a3ca505d382bbc60001b6200044660201b6200037c1760201c565b60000160006101000a81548173ffffffffffffffffffffffffffffffffffffffff021916908373ffffffffffffffffffffffffffffffffffffffff16021790555050565b60606000808573ffffffffffffffffffffffffffffffffffffffff1685604051620003e091906200099b565b600060405180830381855af49150503d80600081146200041d576040519150601f19603f3d011682016040523d82523d6000602084013e62000422565b606091505b50915091506200043b868383876200047360201b60201c565b925050509392505050565b6000819050919050565b6000808273ffffffffffffffffffffffffffffffffffffffff163b119050919050565b60608315620004e457600083511415620004db5762000498856200045060201b60201c565b620004da576040517f08c379a0000000000000000000000000000000000000000000000000000000008152600401620004d19062000a04565b60405180910390fd5b5b829050620004f7565b620004f68383620004ff60201b60201c565b5b949350505050565b600082511115620005135781518083602001fd5b806040517f08c379a000000000000000000000000000000000000000000000000000000000815260040162000549919062000a72565b60405180910390fd5b6000604051905090565b600080fd5b600080fd5b600073ffffffffffffffffffffffffffffffffffffffff82169050919050565b6000620005938262000566565b9050919050565b620005a58162000586565b8114620005b157600080fd5b50565b600081519050620005c5816200059a565b92915050565b600080fd5b600080fd5b6000601f19601f8301169050919050565b7f4e487b7100000000000000000000000000000000000000000000000000000000600052604160045260246000fd5b6200062082620005d5565b810181811067ffffffffffffffff82111715620006425762000641620005e6565b5b80604052505050565b60006200065762000552565b905062000665828262000615565b919050565b600067ffffffffffffffff821115620006885762000687620005e6565b5b6200069382620005d5565b9050602081019050919050565b60005b83811015620006c0578082015181840152602081019050620006a3565b83811115620006d0576000848401525b50505050565b6000620006ed620006e7846200066a565b6200064b565b9050828152602081018484840111156200070c576200070b620005d0565b5b62000719848285620006a0565b509392505050565b600082601f830112620007395762000738620005cb565b5b81516200074b848260208601620006d6565b91505092915050565b60008060006060848603121562000770576200076f6200055c565b5b60006200078086828701620005b4565b93505060206200079386828701620005b4565b925050604084015167ffffffffffffffff811115620007b757620007b662000561565b5b620007c58682870162000721565b9150509250925092565b620007da8162000586565b82525050565b6000604082019050620007f76000830185620007cf565b620008066020830184620007cf565b9392505050565b600082825260208201905092915050565b7f455243313936373a206e65772061646d696e20697320746865207a65726f206160008201527f6464726573730000000000000000000000000000000000000000000000000000602082015250565b60006200087c6026836200080d565b915062000889826200081e565b604082019050919050565b60006020820190508181036000830152620008af816200086d565b9050919050565b7f455243313936373a206e657720696d706c656d656e746174696f6e206973206e60008201527f6f74206120636f6e747261637400000000000000000000000000000000000000602082015250565b600062000914602d836200080d565b91506200092182620008b6565b604082019050919050565b60006020820190508181036000830152620009478162000905565b9050919050565b600081519050919050565b600081905092915050565b600062000971826200094e565b6200097d818562000959565b93506200098f818560208601620006a0565b80840191505092915050565b6000620009a9828462000964565b915081905092915050565b7f416464726573733a2063616c6c20746f206e6f6e2d636f6e7472616374000000600082015250565b6000620009ec601d836200080d565b9150620009f982620009b4565b602082019050919050565b6000602082019050818103600083015262000a1f81620009dd565b9050919050565b600081519050919050565b600062000a3e8262000a26565b62000a4a81856200080d565b935062000a5c818560208601620006a0565b62000a6781620005d5565b840191505092915050565b6000602082019050818103600083015262000a8e818462000a31565b905092915050565b610e268062000aa66000396000f3fe60806040526004361061004e5760003560e01c80633659cfe6146100675780634f1ef286146100905780635c60da1b146100ac5780638f283970146100d7578063f851a440146101005761005d565b3661005d5761005b61012b565b005b61006561012b565b005b34801561007357600080fd5b5061008e60048036038101906100899190610923565b610145565b005b6100aa60048036038101906100a591906109b5565b6101ac565b005b3480156100b857600080fd5b506100c161024a565b6040516100ce9190610a24565b60405180910390f35b3480156100e357600080fd5b506100fe60048036038101906100f99190610923565b6102a2565b005b34801561010c57600080fd5b506101156102f7565b6040516101229190610a24565b60405180910390f35b6101336103a9565b61014361013e610429565b610438565b565b61014d61045e565b73ffffffffffffffffffffffffffffffffffffffff163373ffffffffffffffffffffffffffffffffffffffff1614156101a05761019b816040518060200160405280600081525060006104b5565b6101a9565b6101a861012b565b5b50565b6101b461045e565b73ffffffffffffffffffffffffffffffffffffffff163373ffffffffffffffffffffffffffffffffffffffff16141561023c576102378383838080601f016020809104026020016040519081016040528093929190818152602001838380828437600081840152601f19601f8201169050808301925050505050505060016104b5565b610245565b61024461012b565b5b505050565b600061025461045e565b73ffffffffffffffffffffffffffffffffffffffff163373ffffffffffffffffffffffffffffffffffffffff1614156102965761028f610429565b905061029f565b61029e61012b565b5b90565b6102aa61045e565b73ffffffffffffffffffffffffffffffffffffffff163373ffffffffffffffffffffffffffffffffffffffff1614156102eb576102e6816104e1565b6102f4565b6102f361012b565b5b50565b600061030161045e565b73ffffffffffffffffffffffffffffffffffffffff163373ffffffffffffffffffffffffffffffffffffffff1614156103435761033c61045e565b905061034c565b61034b61012b565b5b90565b60606103748383604051806060016040528060278152602001610dca6027913961052d565b905092915050565b6000819050919050565b6000808273ffffffffffffffffffffffffffffffffffffffff163b119050919050565b6103b161045e565b73ffffffffffffffffffffffffffffffffffffffff163373ffffffffffffffffffffffffffffffffffffffff16141561041f576040517f08c379a000000000000000000000000000000000000000000000000000000000815260040161041690610ae8565b60405180910390fd5b6104276105b3565b565b60006104336105b5565b905090565b3660008037600080366000845af43d6000803e8060008114610459573d6000f35b3d6000fd5b600061048c7fb53127684a568b3173ae13b9f8a6016e243e63b6e8ee1178d6a717850b5d610360001b61037c565b60000160009054906101000a900473ffffffffffffffffffffffffffffffffffffffff16905090565b6104be8361060c565b6000825111806104cb5750805b156104dc576104da838361034f565b505b505050565b7f7e644d79422f17c01e4894b5f4f588d331ebfa28653d42ae832dc59e38c9798f61050a61045e565b82604051610519929190610b08565b60405180910390a161052a8161065b565b50565b60606000808573ffffffffffffffffffffffffffffffffffffffff16856040516105579190610bab565b600060405180830381855af49150503d8060008114610592576040519150601f19603f3d011682016040523d82523d6000602084013e610597565b606091505b50915091506105a88683838761073c565b925050509392505050565b565b60006105e37f360894a13ba1a3210667c828492db98dca3e2076cc3735a920a3ca505d382bbc60001b61037c565b60000160009054906101000a900473ffffffffffffffffffffffffffffffffffffffff16905090565b610615816107b2565b8073ffffffffffffffffffffffffffffffffffffffff167fbc7cd75a20ee27fd9adebab32041f755214dbc6bffa90cc0225b39da2e5c2d3b60405160405180910390a250565b600073ffffffffffffffffffffffffffffffffffffffff168173ffffffffffffffffffffffffffffffffffffffff1614156106cb576040517f08c379a00000000000000000000000000000000000000000000000000000000081526004016106c290610c34565b60405180910390fd5b806106f87fb53127684a568b3173ae13b9f8a6016e243e63b6e8ee1178d6a717850b5d610360001b61037c565b60000160006101000a81548173ffffffffffffffffffffffffffffffffffffffff021916908373ffffffffffffffffffffffffffffffffffffffff16021790555050565b6060831561079f576000835114156107975761075785610386565b610796576040517f08c379a000000000000000000000000000000000000000000000000000000000815260040161078d90610ca0565b60405180910390fd5b5b8290506107aa565b6107a9838361086b565b5b949350505050565b6107bb81610386565b6107fa576040517f08c379a00000000000000000000000000000000000000000000000000000000081526004016107f190610d32565b60405180910390fd5b806108277f360894a13ba1a3210667c828492db98dca3e2076cc3735a920a3ca505d382bbc60001b61037c565b60000160006101000a81548173ffffffffffffffffffffffffffffffffffffffff021916908373ffffffffffffffffffffffffffffffffffffffff16021790555050565b60008251111561087e5781518083602001fd5b806040517f08c379a00000000000000000000000000000000000000000000000000000000081526004016108b29190610da7565b60405180910390fd5b600080fd5b600080fd5b600073ffffffffffffffffffffffffffffffffffffffff82169050919050565b60006108f0826108c5565b9050919050565b610900816108e5565b811461090b57600080fd5b50565b60008135905061091d816108f7565b92915050565b600060208284031215610939576109386108bb565b5b60006109478482850161090e565b91505092915050565b600080fd5b600080fd5b600080fd5b60008083601f84011261097557610974610950565b5b8235905067ffffffffffffffff81111561099257610991610955565b5b6020830191508360018202830111156109ae576109ad61095a565b5b9250929050565b6000806000604084860312156109ce576109cd6108bb565b5b60006109dc8682870161090e565b935050602084013567ffffffffffffffff8111156109fd576109fc6108c0565b5b610a098682870161095f565b92509250509250925092565b610a1e816108e5565b82525050565b6000602082019050610a396000830184610a15565b92915050565b600082825260208201905092915050565b7f5472616e73706172656e745570677261646561626c6550726f78793a2061646d60008201527f696e2063616e6e6f742066616c6c6261636b20746f2070726f7879207461726760208201527f6574000000000000000000000000000000000000000000000000000000000000604082015250565b6000610ad2604283610a3f565b9150610add82610a50565b606082019050919050565b60006020820190508181036000830152610b0181610ac5565b9050919050565b6000604082019050610b1d6000830185610a15565b610b2a6020830184610a15565b9392505050565b600081519050919050565b600081905092915050565b60005b83811015610b65578082015181840152602081019050610b4a565b83811115610b74576000848401525b50505050565b6000610b8582610b31565b610b8f8185610b3c565b9350610b9f818560208601610b47565b80840191505092915050565b6000610bb78284610b7a565b915081905092915050565b7f455243313936373a206e65772061646d696e20697320746865207a65726f206160008201527f6464726573730000000000000000000000000000000000000000000000000000602082015250565b6000610c1e602683610a3f565b9150610c2982610bc2565b604082019050919050565b60006020820190508181036000830152610c4d81610c11565b9050919050565b7f416464726573733a2063616c6c20746f206e6f6e2d636f6e7472616374000000600082015250565b6000610c8a601d83610a3f565b9150610c9582610c54565b602082019050919050565b60006020820190508181036000830152610cb981610c7d565b9050919050565b7f455243313936373a206e657720696d706c656d656e746174696f6e206973206e60008201527f6f74206120636f6e747261637400000000000000000000000000000000000000602082015250565b6000610d1c602d83610a3f565b9150610d2782610cc0565b604082019050919050565b60006020820190508181036000830152610d4b81610d0f565b9050919050565b600081519050919050565b6000601f19601f8301169050919050565b6000610d7982610d52565b610d838185610a3f565b9350610d93818560208601610b47565b610d9c81610d5d565b840191505092915050565b60006020820190508181036000830152610dc18184610d6e565b90509291505056fe416464726573733a206c6f772d6c6576656c2064656c65676174652063616c6c206661696c6564a264697066735822122016a39a4a249bd5dc12f68b3c993fd7231ef48551b10df91375803be5584c4ca064736f6c634300080a0033416464726573733a206c6f772d6c6576656c2064656c65676174652063616c6c206661696c6564a2646970667358221220c35fdd146a27e3e61889d70958ccb9d3cbe8819c93c2042c507a4c990437e68f64736f6c634300080a0033608060405234801561001057600080fd5b5061002d61002261003260201b60201c565b61003a60201b60201c565b6100fe565b600033905090565b60008060009054906101000a900473ffffffffffffffffffffffffffffffffffffffff169050816000806101000a81548173ffffffffffffffffffffffffffffffffffffffff021916908373ffffffffffffffffffffffffffffffffffffffff1602179055508173ffffffffffffffffffffffffffffffffffffffff168173ffffffffffffffffffffffffffffffffffffffff167f8be0079c531659141344cd1fd0a4f28419497f9722a3daafe3b4186f6b6457e060405160405180910390a35050565b6108838061010d6000396000f3fe608060405234801561001057600080fd5b50600436106100625760003560e01c806315ac72ca14610067578063715018a6146100975780638da5cb5b146100a15780639623609d146100bf57806399a88ec4146100db578063f2fde38b146100f7575b600080fd5b610081600480360381019061007c91906104fc565b610113565b60405161008e9190610538565b60405180910390f35b61009f610195565b005b6100a96101a9565b6040516100b69190610538565b60405180910390f35b6100d960048036038101906100d491906105b8565b6101d2565b005b6100f560048036038101906100f0919061062c565b61024f565b005b610111600480360381019061010c91906104fc565b6102c6565b005b600061011d61034a565b8173ffffffffffffffffffffffffffffffffffffffff16635c60da1b6040518163ffffffff1660e01b81526004016020604051808303816000875af115801561016a573d6000803e3d6000fd5b505050506040513d601f19601f8201168201806040525081019061018e9190610681565b9050919050565b61019d61034a565b6101a760006103c8565b565b60008060009054906101000a900473ffffffffffffffffffffffffffffffffffffffff16905090565b6101da61034a565b8373ffffffffffffffffffffffffffffffffffffffff16634f1ef2868484846040518463ffffffff1660e01b81526004016102179392919061070c565b600060405180830381600087803b15801561023157600080fd5b505af1158015610245573d6000803e3d6000fd5b5050505050505050565b61025761034a565b8173ffffffffffffffffffffffffffffffffffffffff16633659cfe6826040518263ffffffff1660e01b81526004016102909190610538565b600060405180830381600087803b1580156102aa57600080fd5b505af11580156102be573d6000803e3d6000fd5b505050505050565b6102ce61034a565b600073ffffffffffffffffffffffffffffffffffffffff168173ffffffffffffffffffffffffffffffffffffffff16141561033e576040517f08c379a0000000000000000000000000000000000000000000000000000000008152600401610335906107c1565b60405180910390fd5b610347816103c8565b50565b61035261048c565b73ffffffffffffffffffffffffffffffffffffffff166103706101a9565b73ffffffffffffffffffffffffffffffffffffffff16146103c6576040517f08c379a00000000000000000000000000000000000000000000000000000000081526004016103bd9061082d565b60405180910390fd5b565b60008060009054906101000a900473ffffffffffffffffffffffffffffffffffffffff169050816000806101000a81548173ffffffffffffffffffffffffffffffffffffffff021916908373ffffffffffffffffffffffffffffffffffffffff1602179055508173ffffffffffffffffffffffffffffffffffffffff168173ffffffffffffffffffffffffffffffffffffffff167f8be0079c531659141344cd1fd0a4f28419497f9722a3daafe3b4186f6b6457e060405160405180910390a35050565b600033905090565b600080fd5b600080fd5b600073ffffffffffffffffffffffffffffffffffffffff82169050919050565b60006104c98261049e565b9050919050565b6104d9816104be565b81146104e457600080fd5b50565b6000813590506104f6816104d0565b92915050565b60006020828403121561051257610511610494565b5b6000610520848285016104e7565b91505092915050565b610532816104be565b82525050565b600060208201905061054d6000830184610529565b92915050565b600080fd5b600080fd5b600080fd5b60008083601f84011261057857610577610553565b5b8235905067ffffffffffffffff81111561059557610594610558565b5b6020830191508360018202830111156105b1576105b061055d565b5b9250929050565b600080600080606085870312156105d2576105d1610494565b5b60006105e0878288016104e7565b94505060206105f1878288016104e7565b935050604085013567ffffffffffffffff81111561061257610611610499565b5b61061e87828801610562565b925092505092959194509250565b6000806040838503121561064357610642610494565b5b6000610651858286016104e7565b9250506020610662858286016104e7565b9150509250929050565b60008151905061067b816104d0565b92915050565b60006020828403121561069757610696610494565b5b60006106a58482850161066c565b91505092915050565b600082825260208201905092915050565b82818337600083830152505050565b6000601f19601f8301169050919050565b60006106eb83856106ae565b93506106f88385846106bf565b610701836106ce565b840190509392505050565b60006040820190506107216000830186610529565b81810360208301526107348184866106df565b9050949350505050565b600082825260208201905092915050565b7f4f776e61626c653a206e6577206f776e657220697320746865207a65726f206160008201527f6464726573730000000000000000000000000000000000000000000000000000602082015250565b60006107ab60268361073e565b91506107b68261074f565b604082019050919050565b600060208201905081810360008301526107da8161079e565b9050919050565b7f4f776e61626c653a2063616c6c6572206973206e6f7420746865206f776e6572600082015250565b600061081760208361073e565b9150610822826107e1565b602082019050919050565b600060208201905081810360008301526108468161080a565b905091905056fea2646970667358221220ac9d7cd5f40248e55a9cfb6b7cfceea0ec69bfc7f704104ec64b0a240ae9193164736f6c634300080a0033",
  "linkReferences": {},
  "deployedLinkReferences": {}
}