{
  "_format": "hh-sol-artifact-1",
  "contractName": "Upgrader",
  "sourceName": "contracts/helpers/Upgrader.sol",
  "abi": [
    {
      "inputs": [],
      "stateMutability": "nonpayable",
      "type": "constructor"
    },
    {
      "anonymous": false,
      "inputs": [
        {
          "indexed": true,
          "internalType": "address",
          "name": "previousOwner",
          "type": "address"
        },
        {
          "indexed": true,
          "internalType": "address",
          "name": "newOwner",
          "type": "address"
        }
      ],
      "name": "OwnershipTransferred",
      "type": "event"
    },
    {
      "inputs": [
        {
          "internalType": "address",
          "name": "what",
          "type": "address"
        }
      ],
      "name": "getImplementation",
      "outputs": [
        {
          "internalType": "address",
          "name": "",
          "type": "address"
        }
      ],
      "stateMutability": "nonpayable",
      "type": "function"
    },
    {
      "inputs": [],
      "name": "owner",
      "outputs": [
        {
          "internalType": "address",
          "name": "",
          "type": "address"
        }
      ],
      "stateMutability": "view",
      "type": "function"
    },
    {
      "inputs": [],
      "name": "renounceOwnership",
      "outputs": [],
      "stateMutability": "nonpayable",
      "type": "function"
    },
    {
      "inputs": [
        {
          "internalType": "address",
          "name": "newOwner",
          "type": "address"
        }
      ],
      "name": "transferOwnership",
      "outputs": [],
      "stateMutability": "nonpayable",
      "type": "function"
    },
    {
      "inputs": [
        {
          "internalType": "address",
          "name": "what",
          "type": "address"
        },
        {
          "internalType": "address",
          "name": "to",
          "type": "address"
        }
      ],
      "name": "upgrade",
      "outputs": [],
      "stateMutability": "nonpayable",
      "type": "function"
    },
    {
      "inputs": [
        {
          "internalType": "address",
          "name": "what",
          "type": "address"
        },
        {
          "internalType": "address",
          "name": "to",
          "type": "address"
        },
        {
          "internalType": "bytes",
          "name": "data",
          "type": "bytes"
        }
      ],
      "name": "upgradeAndCall",
      "outputs": [],
      "stateMutability": "nonpayable",
      "type": "function"
    }
  ],
  "bytecode": "0x608060405234801561001057600080fd5b5061002d61002261003260201b60201c565b61003a60201b60201c565b6100fe565b600033905090565b60008060009054906101000a900473ffffffffffffffffffffffffffffffffffffffff169050816000806101000a81548173ffffffffffffffffffffffffffffffffffffffff021916908373ffffffffffffffffffffffffffffffffffffffff1602179055508173ffffffffffffffffffffffffffffffffffffffff168173ffffffffffffffffffffffffffffffffffffffff167f8be0079c531659141344cd1fd0a4f28419497f9722a3daafe3b4186f6b6457e060405160405180910390a35050565b6108838061010d6000396000f3fe608060405234801561001057600080fd5b50600436106100625760003560e01c806315ac72ca14610067578063715018a6146100975780638da5cb5b146100a15780639623609d146100bf57806399a88ec4146100db578063f2fde38b146100f7575b600080fd5b610081600480360381019061007c91906104fc565b610113565b60405161008e9190610538565b60405180910390f35b61009f610195565b005b6100a96101a9565b6040516100b69190610538565b60405180910390f35b6100d960048036038101906100d491906105b8565b6101d2565b005b6100f560048036038101906100f0919061062c565b61024f565b005b610111600480360381019061010c91906104fc565b6102c6565b005b600061011d61034a565b8173ffffffffffffffffffffffffffffffffffffffff16635c60da1b6040518163ffffffff1660e01b81526004016020604051808303816000875af115801561016a573d6000803e3d6000fd5b505050506040513d601f19601f8201168201806040525081019061018e9190610681565b9050919050565b61019d61034a565b6101a760006103c8565b565b60008060009054906101000a900473ffffffffffffffffffffffffffffffffffffffff16905090565b6101da61034a565b8373ffffffffffffffffffffffffffffffffffffffff16634f1ef2868484846040518463ffffffff1660e01b81526004016102179392919061070c565b600060405180830381600087803b15801561023157600080fd5b505af1158015610245573d6000803e3d6000fd5b5050505050505050565b61025761034a565b8173ffffffffffffffffffffffffffffffffffffffff16633659cfe6826040518263ffffffff1660e01b81526004016102909190610538565b600060405180830381600087803b1580156102aa57600080fd5b505af11580156102be573d6000803e3d6000fd5b505050505050565b6102ce61034a565b600073ffffffffffffffffffffffffffffffffffffffff168173ffffffffffffffffffffffffffffffffffffffff16141561033e576040517f08c379a0000000000000000000000000000000000000000000000000000000008152600401610335906107c1565b60405180910390fd5b610347816103c8565b50565b61035261048c565b73ffffffffffffffffffffffffffffffffffffffff166103706101a9565b73ffffffffffffffffffffffffffffffffffffffff16146103c6576040517f08c379a00000000000000000000000000000000000000000000000000000000081526004016103bd9061082d565b60405180910390fd5b565b60008060009054906101000a900473ffffffffffffffffffffffffffffffffffffffff169050816000806101000a81548173ffffffffffffffffffffffffffffffffffffffff021916908373ffffffffffffffffffffffffffffffffffffffff1602179055508173ffffffffffffffffffffffffffffffffffffffff168173ffffffffffffffffffffffffffffffffffffffff167f8be0079c531659141344cd1fd0a4f28419497f9722a3daafe3b4186f6b6457e060405160405180910390a35050565b600033905090565b600080fd5b600080fd5b600073ffffffffffffffffffffffffffffffffffffffff82169050919050565b60006104c98261049e565b9050919050565b6104d9816104be565b81146104e457600080fd5b50565b6000813590506104f6816104d0565b92915050565b60006020828403121561051257610511610494565b5b6000610520848285016104e7565b91505092915050565b610532816104be565b82525050565b600060208201905061054d6000830184610529565b92915050565b600080fd5b600080fd5b600080fd5b60008083601f84011261057857610577610553565b5b8235905067ffffffffffffffff81111561059557610594610558565b5b6020830191508360018202830111156105b1576105b061055d565b5b9250929050565b600080600080606085870312156105d2576105d1610494565b5b60006105e0878288016104e7565b94505060206105f1878288016104e7565b935050604085013567ffffffffffffffff81111561061257610611610499565b5b61061e87828801610562565b925092505092959194509250565b6000806040838503121561064357610642610494565b5b6000610651858286016104e7565b9250506020610662858286016104e7565b9150509250929050565b60008151905061067b816104d0565b92915050565b60006020828403121561069757610696610494565b5b60006106a58482850161066c565b91505092915050565b600082825260208201905092915050565b82818337600083830152505050565b6000601f19601f8301169050919050565b60006106eb83856106ae565b93506106f88385846106bf565b610701836106ce565b840190509392505050565b60006040820190506107216000830186610529565b81810360208301526107348184866106df565b9050949350505050565b600082825260208201905092915050565b7f4f776e61626c653a206e6577206f776e657220697320746865207a65726f206160008201527f6464726573730000000000000000000000000000000000000000000000000000602082015250565b60006107ab60268361073e565b91506107b68261074f565b604082019050919050565b600060208201905081810360008301526107da8161079e565b9050919050565b7f4f776e61626c653a2063616c6c6572206973206e6f7420746865206f776e6572600082015250565b600061081760208361073e565b9150610822826107e1565b602082019050919050565b600060208201905081810360008301526108468161080a565b905091905056fea2646970667358221220ac9d7cd5f40248e55a9cfb6b7cfceea0ec69bfc7f704104ec64b0a240ae9193164736f6c634300080a0033",
  "linkReferences": {},
  "deployedLinkReferences": {}
}