{
  "_format": "hh-sol-artifact-1",
  "contractName": "Lock",
  "sourceName": "contracts/Lock.sol",
  "abi": [
    {
      "anonymous": false,
      "inputs": [
        {
          "indexed": false,
          "internalType": "uint8",
          "name": "version",
          "type": "uint8"
        }
      ],
      "name": "Initialized",
      "type": "event"
    },
    {
      "anonymous": false,
      "inputs": [
        {
          "indexed": true,
          "internalType": "address",
          "name": "previousOwner",
          "type": "address"
        },
        {
          "indexed": true,
          "internalType": "address",
          "name": "newOwner",
          "type": "address"
        }
      ],
      "name": "OwnershipTransferred",
      "type": "event"
    },
    {
      "inputs": [],
      "name": "__Lock_init",
      "outputs": [],
      "stateMutability": "nonpayable",
      "type": "function"
    },
    {
      "inputs": [
        {
          "internalType": "uint256",
          "name": "a",
          "type": "uint256"
        }
      ],
      "name": "add",
      "outputs": [
        {
          "internalType": "uint256",
          "name": "",
          "type": "uint256"
        }
      ],
      "stateMutability": "pure",
      "type": "function"
    },
    {
      "inputs": [
        {
          "internalType": "uint256",
          "name": "amount",
          "type": "uint256"
        }
      ],
      "name": "lock",
      "outputs": [],
      "stateMutability": "nonpayable",
      "type": "function"
    },
    {
      "inputs": [],
      "name": "owner",
      "outputs": [
        {
          "internalType": "address",
          "name": "",
          "type": "address"
        }
      ],
      "stateMutability": "view",
      "type": "function"
    },
    {
      "inputs": [],
      "name": "renounceOwnership",
      "outputs": [],
      "stateMutability": "nonpayable",
      "type": "function"
    },
    {
      "inputs": [
        {
          "internalType": "address",
          "name": "registryAddress",
          "type": "address"
        }
      ],
      "name": "setDependencies",
      "outputs": [],
      "stateMutability": "nonpayable",
      "type": "function"
    },
    {
      "inputs": [
        {
          "internalType": "address",
          "name": "newOwner",
          "type": "address"
        }
      ],
      "name": "transferOwnership",
      "outputs": [],
      "stateMutability": "nonpayable",
      "type": "function"
    },
    {
      "inputs": [],
      "name": "treasury",
      "outputs": [
        {
          "internalType": "address",
          "name": "",
          "type": "address"
        }
      ],
      "stateMutability": "view",
      "type": "function"
    }
  ],
  "bytecode": "0x608060405234801561001057600080fd5b50610acc806100206000396000f3fe608060405234801561001057600080fd5b50600436106100885760003560e01c80638389cb181161005b5780638389cb18146100ef5780638da5cb5b1461010b578063dd46706414610129578063f2fde38b1461014557610088565b80631003e2d21461008d578063230e2c6b146100bd57806361d027b3146100c7578063715018a6146100e5575b600080fd5b6100a760048036038101906100a29190610665565b610161565b6040516100b491906106a1565b60405180910390f35b6100c5610177565b005b6100cf6102b5565b6040516100dc91906106fd565b60405180910390f35b6100ed6102db565b005b61010960048036038101906101049190610744565b6102ef565b005b6101136102fa565b60405161012091906106fd565b60405180910390f35b610143600480360381019061013e9190610665565b610324565b005b61015f600480360381019061015a9190610744565b61037d565b005b6000600a8261017091906107a0565b9050919050565b60008060019054906101000a900460ff161590508080156101a85750600160008054906101000a900460ff1660ff16105b806101d557506101b730610401565b1580156101d45750600160008054906101000a900460ff1660ff16145b5b610214576040517f08c379a000000000000000000000000000000000000000000000000000000000815260040161020b90610879565b60405180910390fd5b60016000806101000a81548160ff021916908360ff1602179055508015610251576001600060016101000a81548160ff0219169083151502179055505b610259610424565b80156102b25760008060016101000a81548160ff0219169083151502179055507f7f26b83ff96e1f2b6a682f133852f6798a09c465da95921460cefb384740249860016040516102a991906108eb565b60405180910390a15b50565b606560009054906101000a900473ffffffffffffffffffffffffffffffffffffffff1681565b6102e361047d565b6102ed60006104fb565b565b6102f761047d565b50565b6000603360009054906101000a900473ffffffffffffffffffffffffffffffffffffffff16905090565b80606660003373ffffffffffffffffffffffffffffffffffffffff1673ffffffffffffffffffffffffffffffffffffffff168152602001908152602001600020600082825461037391906107a0565b9250508190555050565b61038561047d565b600073ffffffffffffffffffffffffffffffffffffffff168173ffffffffffffffffffffffffffffffffffffffff1614156103f5576040517f08c379a00000000000000000000000000000000000000000000000000000000081526004016103ec90610978565b60405180910390fd5b6103fe816104fb565b50565b6000808273ffffffffffffffffffffffffffffffffffffffff163b119050919050565b600060019054906101000a900460ff16610473576040517f08c379a000000000000000000000000000000000000000000000000000000000815260040161046a90610a0a565b60405180910390fd5b61047b6105c1565b565b610485610622565b73ffffffffffffffffffffffffffffffffffffffff166104a36102fa565b73ffffffffffffffffffffffffffffffffffffffff16146104f9576040517f08c379a00000000000000000000000000000000000000000000000000000000081526004016104f090610a76565b60405180910390fd5b565b6000603360009054906101000a900473ffffffffffffffffffffffffffffffffffffffff16905081603360006101000a81548173ffffffffffffffffffffffffffffffffffffffff021916908373ffffffffffffffffffffffffffffffffffffffff1602179055508173ffffffffffffffffffffffffffffffffffffffff168173ffffffffffffffffffffffffffffffffffffffff167f8be0079c531659141344cd1fd0a4f28419497f9722a3daafe3b4186f6b6457e060405160405180910390a35050565b600060019054906101000a900460ff16610610576040517f08c379a000000000000000000000000000000000000000000000000000000000815260040161060790610a0a565b60405180910390fd5b61062061061b610622565b6104fb565b565b600033905090565b600080fd5b6000819050919050565b6106428161062f565b811461064d57600080fd5b50565b60008135905061065f81610639565b92915050565b60006020828403121561067b5761067a61062a565b5b600061068984828501610650565b91505092915050565b61069b8161062f565b82525050565b60006020820190506106b66000830184610692565b92915050565b600073ffffffffffffffffffffffffffffffffffffffff82169050919050565b60006106e7826106bc565b9050919050565b6106f7816106dc565b82525050565b600060208201905061071260008301846106ee565b92915050565b610721816106dc565b811461072c57600080fd5b50565b60008135905061073e81610718565b92915050565b60006020828403121561075a5761075961062a565b5b60006107688482850161072f565b91505092915050565b7f4e487b7100000000000000000000000000000000000000000000000000000000600052601160045260246000fd5b60006107ab8261062f565b91506107b68361062f565b9250827fffffffffffffffffffffffffffffffffffffffffffffffffffffffffffffffff038211156107eb576107ea610771565b5b828201905092915050565b600082825260208201905092915050565b7f496e697469616c697a61626c653a20636f6e747261637420697320616c72656160008201527f647920696e697469616c697a6564000000000000000000000000000000000000602082015250565b6000610863602e836107f6565b915061086e82610807565b604082019050919050565b6000602082019050818103600083015261089281610856565b9050919050565b6000819050919050565b600060ff82169050919050565b6000819050919050565b60006108d56108d06108cb84610899565b6108b0565b6108a3565b9050919050565b6108e5816108ba565b82525050565b600060208201905061090060008301846108dc565b92915050565b7f4f776e61626c653a206e6577206f776e657220697320746865207a65726f206160008201527f6464726573730000000000000000000000000000000000000000000000000000602082015250565b60006109626026836107f6565b915061096d82610906565b604082019050919050565b6000602082019050818103600083015261099181610955565b9050919050565b7f496e697469616c697a61626c653a20636f6e7472616374206973206e6f74206960008201527f6e697469616c697a696e67000000000000000000000000000000000000000000602082015250565b60006109f4602b836107f6565b91506109ff82610998565b604082019050919050565b60006020820190508181036000830152610a23816109e7565b9050919050565b7f4f776e61626c653a2063616c6c6572206973206e6f7420746865206f776e6572600082015250565b6000610a606020836107f6565b9150610a6b82610a2a565b602082019050919050565b60006020820190508181036000830152610a8f81610a53565b905091905056fea2646970667358221220be22e25c2ade4db71c35c2317f4880e808d91da882e0885d97679d8330a1e47f64736f6c634300080a0033",
  "linkReferences": {},
  "deployedLinkReferences": {}
}